:020000040000FA
:060000000A128A110C280F
:10000800FE00030EF4000A08F5000A128A114628B9
:100018000A128A110F28F001F101F20183010A1274
:100028008A116C288316031387018312031387012F
:100038008901013083160317880083160313890189
:10004800831203138601FF30831603138600831679
:1000580003178901FF3083160313950081130330BA
:10006800960083120313850101308316031385005C
:100078008312031388018316031388018B178B15CA
:100088000B1008000B1C652883120313061856284A
:100098007108031D5628F101F10A72080319562840
:1000A8000130F202861864287008031D6428F001E4
:1000B800F00A720A031964280130F3007308F20782
:1000C8000B1075088A00740E8300FE0E7E0E090060
:1000D8000A128A1116200A128A11F2017208831272
:1000E8000313880072088800FF3087000914061877
:0A00F800F101861C7628F00176283D
:04400E00D4E0FFFFFC
:00000001FF
