:020000040000FA
:060000000A128A110E280D
:10000800FE00030EF8000408F9000A08FA000A12B4
:100018008A116D290A128A1111280A128A112922B5
:10002800FD00A301A401FB01FC0183010A128A114E
:10003800F029F50075080F39F1007108F30075080B
:10004800F10004300310F10CFF3E031D262871084F
:100058000F39F2007208F400DE2883120313091026
:10006800891466283F30870008000630870008009A
:100078005B30870008004F30870008006630870033
:1000880008006D30870008007D30870008000730C1
:10009800870008007F308700080067308700080065
:1000A8007730870008007C308700080039308700E7
:1000B80008005E308700080079308700080071303A
:1000C800870008007408F100F2017208003A031969
:1000D8006E28EE287108003A03193628013A0319E8
:1000E8003928033A03193C28013A03193F28073AEB
:1000F80003194228013A03194528033A03194828E5
:10010800013A03194B280F3A03194E28013A0319EB
:100118005128033A03195428013A03195728073A72
:1001280003195A28013A03195D28033A031960286C
:10013800013A03196328EE2883120313091489105E
:100148007308F100F2017208003A0319AC28EE288E
:100158007108003A03193628013A03193928033A75
:1001680003193C28013A03193F28073A0319422882
:10017800013A03194528033A03194828013A031993
:100188004B280F3A03194E28013A03195128033A0C
:1001980003195428013A03195728073A03195A280A
:1001A800013A03195D28033A03196028013A031933
:1001B8006328EE287008F100F2017208003A03196A
:1001C800E628EE287108003A03193128013A031984
:1001D800A028EE28080083120313A2009F131F17FC
:1001E80024291F299F1207299F120A299F120D29C6
:1001F8009F1210299F1213299F1217299F121B293A
:100208009F1620299F161F1214299F161F1218299E
:100218009F161F121C299F161F1621299F161F168D
:100228009F111D299F161F169F1522299F161F16FD
:100238009F151F155E299F121F129F111F115E29FE
:100248002208A000A1012108003A03192C291F291E
:100258002008003A0319F528013A0319F628033A49
:100268000319F828013A0319FA28073A0319FC2850
:10027800013A0319FE28033A03190029013A031920
:1002880002290F3A03190429013A03190629033AE6
:1002980003190929013A03190C29073A03190F29E7
:1002A800013A03191229033A03191629013A0319C5
:1002B8001A291F29831603139F139F121F128312D3
:1002C80003131F14831603130C17831203130C1341
:1002D8000800831203130C1F76291E08F6007608FF
:1002E800FB000C130B1C9329061884292408031DF2
:1002F8008429A401A40A7C08031984290130FC027A
:10030800861892292308031D9229A301A30A7C0AAF
:10031800031992290130F6007608FC070B100B1D13
:10032800B6297D08F6007608F0007B080A128A11C3
:100338001D200A128A11A529FD01FD0AB529FD0112
:10034800B5297D08F600F7017708003A0319AD29A9
:10035800B5297608003A0319A029013A0319A329F7
:10036800B5290B117A088A0079088400780E830071
:10037800FE0E7E0E090083160313870183120313F2
:100388008701890101308316031788008316031338
:100398008901831203138601FF3083160313860035
:1003A800831603178901FF30831603139500811301
:1003B800033096008312031385010130831603135B
:1003C80085008312031388018316031388018B1792
:1003D8008B150B100B1708000A128A11BF210A127D
:1003E8008A1100300A128A11EF200A128A11FF308E
:1003F8000A128A1119220A128A11FC017C08831236
:10040800031388007C0888000618A4018618A30135
:100418009F149F180D2A7B087C02031C09157C0871
:100428007B020318062A0911062A83120313A00067
:1004380083160313811281110115811001100B110C
:0C04480083120313200881000800013417
:04400E00D4E0FFFFFC
:00000001FF
