:020000040000FA
:060000000A128A110C280F
:10000800FE00030EF1000A08F2000A128A11C6283F
:100018000A128A110F28F601F701F801F901830184
:100028000A128A11F328F500831203139F131F176E
:100038004C2847289F122F289F1232289F123528B4
:100048009F1238289F123B289F123F289F1243284F
:100058009F1648289F161F123C289F161F124028DB
:100068009F161F1244289F161F1649289F161F16F1
:100078009F1145289F161F169F154A289F161F1661
:100088009F151F1586289F121F129F111F11862862
:100098007508F300F4017408003A03195428472836
:1000A8007308003A03191D28013A03191E28033A58
:1000B80003192028013A03192228073A031924288A
:1000C800013A03192628033A03192828013A031983
:1000D8002A280F3A03192C28013A03192E28033A23
:1000E80003193128013A03193428073A0319372824
:1000F800013A03193A28033A03193E28013A031929
:1001080042284728831603139F139F121F12831236
:1001180003131F14831603130C17831203130C13F2
:1001280008008316031387018312031387018901CB
:10013800013083160317880083160313890183127D
:1001480003138601FF3083160313860083160317F3
:100158008901FF308316031395008113033096003D
:10016800831203138501013083160313850083125C
:10017800031388018316031388018B178B150B1043
:100188000B170800831203130C1FCF281E08F0005A
:100198007008F6000C130B1CEC280618DD287808EC
:1001A800031DDD28F801F80A79080319DD28013054
:1001B800F9028618EB287708031DEB28F701F70AE0
:1001C800790A0319EB280130F0007008F9070B10C1
:1001D80072088A00710E8300FE0E7E0E09000A1254
:1001E8008A1195200A128A1100300A128A111720E2
:1001F8000A128A11F9017908831203138800790811
:1002080088007608870009140618F8018618F7018F
:080218009F149F1C03290D290E
:04400E00D4E0FFFFFC
:00000001FF
